:100000000C94CE000C94F6000C94F6000C94F600C0
:100010000C94F6000C94F6000C94F6000C94F60088
:100020000C94F6000C94F6000C94F6000C94F60078
:100030000C94F6000C94F6000C94F6000C94F60068
:100040000C94D5030C94F6000C9445040C941F04F6
:100050000C94F6000C94F6000C94F6000C94F60048
:100060000C94F6000C94F6004479736F6E20426194
:100070007474657279206F726967696E616C20664D
:1000800069726D7761726520756E6C6F636B6572F6
:10009000206279204B756D647A696F0056657269CC
:1000A0006669636174696F6E206F66207772697428
:1000B00074656E20666978206661696C65642E00DF
:1000C000466978206170706C69656420737563633C
:1000D00065737366756C6C792E0042656767696E2F
:1000E000696E67206F6620454550524F4D206973F9
:1000F00020646966666572656E74207468616E203E
:1001000065787065637465642E00417474656D7004
:1001100074696E67206669782E00436865636B6951
:100120006E672069662050494331364C4631383479
:10013000372069732064657465637465642E0000FC
:10014000000000240027002A0000000000250028ED
:10015000002B0000000000230026002900040404F6
:100160000404040404020202020202030303030360
:10017000030102040810204080010204081020013D
:10018000020408102000000008000201000003041F
:1001900007000000000000000000910611241FBEAF
:1001A000CFEFD8E0DEBFCDBF11E0A0E0B1E0ECE8DA
:1001B000FDE002C005900D92AE36B107D9F722E0FE
:1001C000AEE6B1E001C01D92A631B207E1F710E042
:1001D000CEECD0E004C02197FE010E94BE06CD3CCB
:1001E000D107C9F70E9477040C94C4060C94000050
:1001F000833081F028F4813099F08230A9F008959D
:100200008730A9F08830C9F08430B1F48091800043
:100210008F7D03C0809180008F7780938000089548
:1002200084B58F7784BD089584B58F7DFBCF809191
:10023000B0008F778093B00008958091B0008F7DDB
:10024000F9CFCF93DF93E8E8F1E08491E4E7F1E0C0
:10025000D491E0E6F1E0C491CC23A1F081110E9499
:10026000F800EC2FF0E0EE0FFF1FED5AFE4FA591C6
:10027000B491EC91ED2381E090E009F480E0DF910E
:10028000CF91089580E090E0FACF1F93CF93DF9352
:10029000282F30E0F901EB57FE4F8491F901EF5818
:1002A000FE4FD491F901E35AFE4FC491CC23A9F03B
:1002B000162F81110E94F800EC2FF0E0EE0FFF1FC7
:1002C000E75BFE4FA591B4918FB7F894EC911111B3
:1002D00008C0D095DE23DC938FBFDF91CF911F91B3
:1002E0000895DE2BF8CFCF93DF9390E0FC01EF5819
:1002F000FE4F2491835A9E4FFC0184918823D1F0B4
:1003000090E0880F991FFC01E15CFE4FA591B4912C
:10031000FC01E75BFE4FC591D49161110EC09FB700
:10032000F8948C91E22FE0958E238C932881E22320
:10033000E8839FBFDF91CF9108958FB7F894EC9138
:10034000E22BEC938FBFF6CF3FB7F8948091750105
:1003500090917601A0917701B091780126B5A89B84
:1003600005C02F3F19F00196A11DB11D3FBFBA2F47
:10037000A92F982F8827BC01CD01620F711D811D07
:10038000911D42E0660F771F881F991F4A95D1F78C
:1003900008958F929F92AF92BF92CF92DF92EF9289
:1003A000FF924B015C010E94A4016B017C010E9441
:1003B000A4016C197D098E099F09683E734081056F
:1003C0009105A8F321E0821A9108A108B10888EEEE
:1003D000C80E83E0D81EE11CF11C81149104A10415
:1003E000B10429F7FF90EF90DF90CF90BF90AF90CE
:1003F0009F908F900895AF92BF92CF92DF92EF922D
:10040000FF920F931F93CF93DF936C017B018B01BE
:10041000040F151FEB015E01AE18BF08C017D1070E
:1004200059F06991D601ED91FC910190F081E02D98
:10043000C6010995892B79F7C501DF91CF911F91ED
:100440000F91FF90EF90DF90CF90BF90AF90089505
:10045000FC01538D448D252F30E0842F90E0821BCA
:10046000930B541710F0CF96089501970895FC014F
:10047000918D828D981761F0A28DAE0FBF2FB11DA7
:100480005D968C91928D9F5F9F73928F90E00895FF
:100490008FEF9FEF0895FC01918D828D981731F0B9
:1004A000828DE80FF11D858D90E008958FEF9FEF0D
:1004B0000895FC01918D228D892F90E0805C9F4FE3
:1004C000821B91098F739927089589E791E00E9413
:1004D000590221E0892B09F420E0822F089580E061
:1004E00090E0892B29F00E94650281110C94000094
:1004F0000895FC01A48DA80FB92FB11DA35ABF4FB9
:100500002C91848D90E001968F739927848FA68912
:10051000B7892C93A089B1898C91837080648C9366
:10052000938D848D981306C00288F389E02D808115
:100530008F7D80830895EF92FF920F931F93CF9347
:10054000DF93EC0181E0888F9B8D8C8D98131AC00E
:10055000E889F989808185FF15C09FB7F894EE89F5
:10056000FF896083E889F989808183708064808352
:100570009FBF81E090E0DF91CF911F910F91FF909D
:10058000EF900895F62E0B8D10E00F5F1F4F0F7345
:100590001127E02E8C8D8E110CC00FB607FCFACF00
:1005A000E889F989808185FFF5CFCE010E94790223
:1005B000F1CFEB8DEC0FFD2FF11DE35AFF4FF082D1
:1005C0009FB7F8940B8FEA89FB8980818062CFCF37
:1005D000CF93DF93EC01888D8823B9F0AA89BB897A
:1005E000E889F9898C9185FD03C0808186FD0DC065
:1005F0000FB607FCF7CF8C9185FFF2CF808185FF86
:10060000EDCFCE010E947902E9CFDF91CF9108951D
:1006100061E082E00E94450160E082E00C944501C7
:100620000F931F93CF93DF93082F61E083E00E9425
:10063000730160E082E00E94450160E083E00E9477
:100640004501D0E0C0E010E0B8010C2E02C0759565
:1006500067950A94E2F7617083E00E9445010E9469
:1006600008032196C630D10579F761E070E080E09B
:1006700090E0DF91CF911F910F910C94C9010F93DE
:100680001F93CF93DF9385E00E94100360E083E027
:100690000E9473010E9408030E940803D0E0C0E09A
:1006A00010E000E00E9421010C2E02C0880F991F6B
:1006B0000A94E2F7082B192B0E9408032196CE30EA
:1006C000D10581F7C801DF91CF911F910F91089556
:1006D00086E00E94100380916E0190916F018F3F20
:1006E0002FE7920729F410926F0110926E0108957E
:1006F0008F3F980739F480E090E890936F018093E2
:100700006E0108950196F9CF0F931F93CF93DF9356
:100710008C01D0E0C0E060E08DE00E9445016CE219
:1007200071E080E090E00E94C90161E08DE00E94EC
:1007300045016CE271E080E090E00E94C9012196E1
:100740000C171D0741F7DF91CF911F910F9108956D
:10075000FC0101900020E9F73197AF01481B590BCC
:10076000BC0189E791E00C94FB010F931F93CF9399
:10077000DF938C01D0E0C0E0F801EC0FFD1F649125
:10078000662341F089E791E00E949B02892B11F0DA
:100790002196F2CF8EE191E00E94A8038C0F9D1F5D
:1007A000DF91CF911F910F9108951F920F920FB675
:1007B0000F9211242F933F938F939F93AF93BF93E7
:1007C0008091710190917201A0917301B0917401B7
:1007D0003091700123E0230F2D3758F50196A11DAC
:1007E000B11D209370018093710190937201A093C9
:1007F0007301B09374018091750190917601A0917D
:100800007701B09178010196A11DB11D809375010A
:1008100090937601A0937701B0937801BF91AF9147
:100820009F918F913F912F910F900FBE0F901F902E
:10083000189526E8230F0296A11DB11DD2CF1F9255
:100840000F920FB60F9211242F933F934F935F9304
:100850006F937F938F939F93AF93BF93EF93FF9388
:1008600089E791E00E947902FF91EF91BF91AF91EA
:100870009F918F917F916F915F914F913F912F91B8
:100880000F900FBE0F901F9018951F920F920FB6EA
:100890000F9211242F938F939F93EF93FF93E091E7
:1008A0008901F0918A018081E0918F01F09190019E
:1008B00082FD1BC09081809192018F5F8F73209188
:1008C0009301821741F0E0919201F0E0E758FE4F6A
:1008D000958F80939201FF91EF919F918F912F912E
:1008E0000F900FBE0F901F9018958081F4CFCF937B
:1008F000DF93CDB7DEB7A1970FB6F894DEBF0FBE7A
:10090000CDBF789484B5826084BD84B5816084BD98
:1009100085B5826085BD85B5816085BD80916E009D
:10092000816080936E0010928100809181008260CE
:10093000809381008091810081608093810080910B
:1009400080008160809380008091B10084608093FA
:10095000B1008091B00081608093B00080917A00F6
:10096000846080937A0080917A00826080937A001C
:1009700080917A00816080937A0080917A0080680B
:1009800080937A001092C100E0918901F0918A0170
:1009900082E08083E0918901F0918A011082E091E8
:1009A0008501F09186011082E0918701F091880124
:1009B00080E1808310929101E0918D01F0918E0190
:1009C00086E08083E0918B01F0918C0180818061D1
:1009D0008083E0918B01F0918C018081886080831D
:1009E000E0918B01F0918C01808180688083E0919F
:1009F0008B01F0918C0180818F7D808361E082E0AA
:100A00000E94730161E083E00E94730160E083E073
:100A10000E94450160E082E00E94450161E08DE0B6
:100A20000E94730110926F0110926E0188E690E0AF
:100A30000E94B503212C60E8362E2E012DE0420ED7
:100A4000511C3E0185E0680E711C70E0872E70E03D
:100A5000972E8AE191E00E94B50361E08DE00E944B
:100A6000450160E082E00E94450160E083E00E9471
:100A7000450161E070E080E090E00E94C90180E003
:100A80000E94100300E110E00E94080301501109C8
:100A9000D9F730926F0120926E0180916E01909192
:100AA0006F018630904818F40E946803F6CF84E006
:100AB0000E94100360E083E00E9473010E9408031B
:100AC0000E94080310E000E0F12CE12C0E942101BB
:100AD0000E2C02C0880F991F0A94E2F7082B192BDD
:100AE0000E940803FFEFEF1AFF0A2EE0E216F1045E
:100AF00069F7C801807E9F73803A9441E9F581E2ED
:100B000091E00E94A8038EE191E00E94A8038AE090
:100B100091E00E94B50386E10E94100310926F01DC
:100B200010926E018CE0E0E0F1E0DE0111960190A0
:100B30000D928A95E1F78E010F5F1F4FF801E1904A
:100B4000F1908F010E943F03E816F90609F0D7C023
:100B50000E9468030415150589F719821A82FFE7B8
:100B6000FB831C8280916E0190916F014E9708F07B
:100B700046C00E946803F6CF87E391E00E94A80375
:100B8000012E000C220B330B19A2CE018196B90164
:100B9000A8014F7055276627772754E0369527958B
:100BA000179507955A95D1F74A303CF5405DFC0101
:100BB0004293CF01011511052105310541F7EF2BB6
:100BC00011F00E94A8038EE191E00E94A80360E06A
:100BD0008DE00E94450168EE73E080E090E00E94A5
:100BE000C9018114910409F434CF0E94650288235D
:100BF00009F42FCF0E9400002CCF495CD8CFCE0142
:100C000001967C01F7010181C08083E00E941003FE
:100C100061E083E00E94730160E082E00E94450190
:100C200060E083E00E9445010E940803B12CA12CE2
:100C3000D12CB6010A2C02C0759567950A94E2F78B
:100C4000617083E00E9445010E940803FFEFAF1A24
:100C5000BF0A28E0A216B10461F7B12CA12C10E064
:100C6000B8010A2C02C0759567950A94E2F7617085
:100C700083E00E9445010E9408038FEFA81AB80A7A
:100C800096E0A916B10461F760E083E00E94450197
:100C90000E94080361E070E080E090E00E94C901DA
:100CA00088E00E9410036AE070E080E090E00E941B
:100CB000C9010E943F03102F002700271F73C02A7D
:100CC000D12A8C159D0521F50E946803E2E0EE0E05
:100CD000F11CE614F70409F095CF80EC90E00E9437
:100CE000B50368E873E180E090E00E94C90186E105
:100CF0000E94100310926F0110926E0168CF8AED6E
:100D000090E00E94B5038AE090E00E94840369CFDE
:100D10008CE990E00E94B50385E090E00E94840396
:100D2000E6CFE9E7F1E01382128288EE93E0A0E0DB
:100D3000B0E084839583A683B78380E191E09183BB
:100D4000808385EC90E09587848784EC90E097879A
:100D5000868780EC90E0918B808B81EC90E0938B88
:100D6000828B82EC90E0958B848B86EC90E0978B65
:100D7000868B118E128E138E148E0895EE0FFF1F28
:0C0D80000590F491E02D0994F894FFCF49
:100D8C0050005300310020005600310000000000DC
:100D9C009B02FB012802E802590237024B020D0AA2
:100DAC000044657465637465642050494331384C64
:100DBC004631383437210052656164656E204944F0
:100DCC00206973206E6F7420636F72726563742E6A
:100DDC002053686F756C6420626520307831344123
:0E0DEC003020616E642069733A203078000078
:00000001FF
