:100000000C94B6000C94DE000C94DE000C94DE0020
:100010000C94DE000C94DE000C94DE000C94DE00E8
:100020000C94DE000C94DE000C94DE000C94DE00D8
:100030000C94DE000C94DE000C94DE000C94DE00C8
:100040000C9470030C94DE000C94E0030C94BA033F
:100050000C94DE000C94DE000C94DE000C94DE00A8
:100060000C94DE000C94DE004479736F6E204261C4
:100070007474657279206F726967696E616C20664D
:1000800069726D7761726520756E6C6F636B6572F6
:10009000206279204B756D647A696F0056657269CC
:1000A0006669636174696F6E206F66207772697428
:1000B00074656E20666978206661696C65642E00DF
:1000C000466978206170706C69656420737563633C
:1000D00065737366756C6C792E00417474656D7010
:1000E00074696E67206669782E00436865636B6982
:1000F0006E672069662050494331364C46313834AA
:10010000372069732064657465637465642E00002C
:10011000000000240027002A00000000002500281D
:10012000002B000000000023002600290004040426
:100130000404040404020202020202030303030390
:10014000030102040810204080010204081020016D
:10015000020408102000000008000201000003044F
:1001600007000000000000000000740611241FBEFC
:10017000CFEFD8E0DEBFCDBF11E0A0E0B1E0E2E517
:10018000FDE002C005900D92A236B107D9F722E03A
:10019000A2E6B1E001C01D92AA30B207E1F710E07B
:1001A000C6EBD0E004C02197FE010E94A106C53B2A
:1001B000D107C9F70E9412040C94A7060C94000002
:1001C000833081F028F4813099F08230A9F00895CD
:1001D0008730A9F08830C9F08430B1F48091800074
:1001E0008F7D03C0809180008F7780938000089579
:1001F00084B58F7784BD089584B58F7DFBCF8091C2
:10020000B0008F778093B00008958091B0008F7D0B
:10021000F9CFCF93DF93E8E5F1E08491E4E4F1E0F6
:10022000D491E0E3F1E0C491CC23A1F081110E94CC
:10023000E000EC2FF0E0EE0FFF1FED5DFE4FA5910B
:10024000B491EC91ED2381E090E009F480E0DF913E
:10025000CF91089580E090E0FACF1F93CF93DF9382
:10026000282F30E0F901EB5AFE4F8491F901EF5B42
:10027000FE4FD491F901E35DFE4FC491CC23A9F068
:10028000162F81110E94E000EC2FF0E0EE0FFF1F0F
:10029000E75EFE4FA591B4918FB7F894EC911111E0
:1002A00008C0D095DE23DC938FBFDF91CF911F91E3
:1002B0000895DE2BF8CFCF93DF9390E0FC01EF5B46
:1002C000FE4F2491835D9E4FFC0184918823D1F0E1
:1002D00090E0880F991FFC01E15FFE4FA591B4915A
:1002E000FC01E75EFE4FC591D49161110EC09FB72E
:1002F000F8948C91E22FE0958E238C932881E22351
:10030000E8839FBFDF91CF9108958FB7F894EC9168
:10031000E22BEC938FBFF6CF3FB7F8948091690141
:1003200090916A01A0916B01B0916C0126B5A89BD8
:1003300005C02F3F19F00196A11DB11D3FBFBA2F77
:10034000A92F982F8827BC01CD01620F711D811D37
:10035000911D42E0660F771F881F991F4A95D1F7BC
:1003600008958F929F92AF92BF92CF92DF92EF92B9
:10037000FF924B015C010E948C016B017C010E9489
:100380008C016C197D098E099F09683E73408105B7
:100390009105A8F321E0821A9108A108B10888EE1E
:1003A000C80E83E0D81EE11CF11C81149104A10445
:1003B000B10429F7FF90EF90DF90CF90BF90AF90FE
:1003C0009F908F900895AF92BF92CF92DF92EF925D
:1003D000FF920F931F93CF93DF936C017B018B01EF
:1003E000040F151FEB015E01AE18BF08C017D1073F
:1003F00059F06991D601ED91FC910190F081E02DC9
:10040000C6010995892B79F7C501DF91CF911F911D
:100410000F91FF90EF90DF90CF90BF90AF90089535
:10042000FC01538D448D252F30E0842F90E0821BFA
:10043000930B541710F0CF96089501970895FC017F
:10044000918D828D981761F0A28DAE0FBF2FB11DD7
:100450005D968C91928D9F5F9F73928F90E008952F
:100460008FEF9FEF0895FC01918D828D981731F0E9
:10047000828DE80FF11D858D90E008958FEF9FEF3D
:100480000895FC01918D228D892F90E0805C9F4F13
:10049000821B91098F73992708958DE691E00E9440
:1004A000410221E0892B09F420E0822F089580E0A9
:1004B00090E0892B29F00E944D0281110C940000DC
:1004C0000895FC01A48DA80FB92FB11DA35ABF4FE9
:1004D0002C91848D90E001968F739927848FA68943
:1004E000B7892C93A089B1898C91837080648C9397
:1004F000938D848D981306C00288F389E02D808146
:100500008F7D80830895EF92FF920F931F93CF9377
:10051000DF93EC0181E0888F9B8D8C8D98131AC03E
:10052000E889F989808185FF15C09FB7F894EE8925
:10053000FF896083E889F989808183708064808382
:100540009FBF81E090E0DF91CF911F910F91FF90CD
:10055000EF900895F62E0B8D10E00F5F1F4F0F7375
:100560001127E02E8C8D8E110CC00FB607FCFACF30
:10057000E889F989808185FFF5CFCE010E9461026B
:10058000F1CFEB8DEC0FFD2FF11DE35AFF4FF08201
:100590009FB7F8940B8FEA89FB8980818062CFCF67
:1005A000CF93DF93EC01888D8823B9F0AA89BB89AA
:1005B000E889F9898C9185FD03C0808186FD0DC095
:1005C0000FB607FCF7CF8C9185FFF2CF808185FFB6
:1005D000EDCFCE010E946102E9CFDF91CF91089566
:1005E00061E082E00E942D0160E082E00C942D0128
:1005F0000F931F93CF93DF93082F61E083E00E9456
:100600005B0160E082E00E942D0160E083E00E94D7
:100610002D01D0E0C0E010E0B8010C2E02C07595AD
:1006200067950A94E2F7617083E00E942D010E94B1
:10063000F0022196C630D10579F761E070E080E0E4
:1006400090E0DF91CF911F910F910C94B10186E062
:100650000E94F80280916201909163018F3F2FE721
:10066000920729F4109263011092620108958F3F5E
:10067000980739F480E090E89093630180936201D9
:1006800008950196F9CFFC0101900020E9F7319718
:10069000AF01481B590BBC018DE691E00C94E301BE
:1006A0000F931F93CF93DF938C01D0E0C0E0F8014C
:1006B000EC0FFD1F6491662341F08DE691E00E94EE
:1006C0008302892B11F02196F2CF82E191E00E9402
:1006D00043038C0F9D1FDF91CF911F910F910895C0
:1006E0001F920F920FB60F9211242F933F938F9367
:1006F0009F93AF93BF938091650190916601A09104
:100700006701B09168013091640123E0230F2D3718
:1007100058F50196A11DB11D2093640180936501D8
:1007200090936601A0936701B0936801809169017D
:1007300090916A01A0916B01B0916C010196A11D8D
:10074000B11D8093690190936A01A0936B01B093EE
:100750006C01BF91AF919F918F913F912F910F901D
:100760000FBE0F901F90189526E8230F0296A11D2B
:10077000B11DD2CF1F920F920FB60F9211242F935B
:100780003F934F935F936F937F938F939F93AF9319
:10079000BF93EF93FF938DE691E00E946102FF917A
:1007A000EF91BF91AF919F918F917F916F915F91E9
:1007B0004F913F912F910F900FBE0F901F90189562
:1007C0001F920F920FB60F9211242F938F939F9326
:1007D000EF93FF93E0917D01F0917E018081E091A4
:1007E0008301F091840182FD1BC09081809186017C
:1007F0008F5F8F7320918701821741F0E09186010E
:10080000F0E0E359FE4F958F80938601FF91EF91C1
:100810009F918F912F910F900FBE0F901F90189561
:100820008081F4CFCF93DF93CDB7DEB7A1970FB61A
:10083000F894DEBF0FBECDBF789484B5826084BDCE
:1008400084B5816084BD85B5826085BD85B58160D4
:1008500085BD80916E00816080936E001092810052
:10086000809181008260809381008091810081600D
:1008700080938100809180008160809380008091CE
:10088000B10084608093B1008091B000816080935A
:10089000B00080917A00846080937A0080917A0021
:1008A000826080937A0080917A00816080937A00E0
:1008B00080917A00806880937A001092C100E09164
:1008C0007D01F0917E0182E08083E0917D01F091D5
:1008D0007E011082E0917901F0917A011082E0911D
:1008E0007B01F0917C0180E1808310928501E09191
:1008F0008101F091820186E08083E0917F01F09197
:100900008001808180618083E0917F01F09180018E
:10091000808188608083E0917F01F09180018081F7
:1009200080688083E0917F01F091800180818F7DDC
:10093000808361E082E00E945B0161E083E00E94CD
:100940005B0160E083E00E942D0160E082E00E9494
:100950002D0161E08DE00E945B0110926301109215
:10096000620188E690E00E945003212C60E8362E58
:100970002E0125E0420E511C70E0672E70E0772EAC
:100980008AEE90E00E94500361E08DE00E942D010C
:1009900060E082E00E942D0160E083E00E942D0172
:1009A00061E070E080E090E00E94B10180E00E9490
:1009B000F80200E110E00E94F00201501109D9F79D
:1009C00030926301209262018091620190916301F3
:1009D0008630904818F40E942703F6CF84E00E94E6
:1009E000F80260E083E00E945B010E94F0020E9436
:1009F000F00210E000E0F12CE12C0E9409010E2C25
:100A000002C0880F991F0A94E2F7082B192B0E9445
:100A1000F002FFEFEF1AFF0A2EE0E216F10469F789
:100A2000C801807E9F73803A944111F585E191E081
:100A30000E94430382E191E00E9443038AED90E02B
:100A40000E94500386E10E94F80210926301109206
:100A5000620119821A82FFE7FB831C828091620186
:100A6000909163014E9708F046C00E942703F6CF8D
:100A70008BE291E00E944303012E000C220B330B0A
:100A800019A2CE018196B901A8014F70552766279A
:100A9000772754E036952795179507955A95D1F7FE
:100AA0004A303CF5405DFC014293CF010115110530
:100AB0002105310541F7EF2B11F00E94430382E13C
:100AC00091E00E94430360E08DE00E942D0168EEFA
:100AD00073E080E090E00E94B1016114710409F4B8
:100AE0004FCF0E944D02882309F44ACF0E94000094
:100AF00047CF495CD8CFCE0101967C01F701018137
:100B0000C08083E00E94F80261E083E00E945B0104
:100B100060E082E00E942D0160E083E00E942D01F0
:100B20000E94F002B12CA12CD12CB6010A2C02C0DB
:100B3000759567950A94E2F7617083E00E942D0134
:100B40000E94F002FFEFAF1ABF0A28E0A216B1041C
:100B500061F7B12CA12C10E0B8010A2C02C07595E8
:100B600067950A94E2F7617083E00E942D010E946C
:100B7000F0028FEFA81AB80A96E0A916B10461F73F
:100B800060E083E00E942D010E94F00261E070E0CD
:100B900080E090E00E94B10188E00E94F8026AE0E3
:100BA00070E080E090E00E94B10185E00E94F802D0
:100BB00060E083E00E945B010E94F0020E94F0026C
:100BC000912C812CB12CA12C0E9409010A2C02C06D
:100BD000880F991F0A94E2F7882A992A0E94F00246
:100BE000EFEFAE1ABE0AFEE0AF16B10469F7102FA0
:100BF000002700271F73C02AD12AC814D904D9F4AA
:100C00000E94270322E0E20EF11CE414F50409F02F
:100C100075CF80EC90E00E94500368E873E180E0BB
:100C200090E00E94B10186E10E94F80210926301F7
:100C30001092620148CF8CE990E00E9450036CE270
:100C400071E080E090E00E94B10160E08DE00E94E0
:100C50002D016CE271E080E090E00E94B10161E062
:100C60008DE00E942D016CE271E080E090E00E9436
:100C7000B10160E08DE00E942D016CE271E080E046
:100C800090E00E94B10161E08DE00E942D016CE2D4
:100C900071E080E090E00E94B10160E08DE00E9490
:100CA0002D016CE271E080E090E00E94B10161E012
:100CB0008DE00E942D016CE271E080E090E00E94E6
:100CC000B10160E08DE00E942D016CE271E080E0F6
:100CD00090E00E94B10161E08DE00E942D016CE284
:100CE00071E080E090E09DCFEDE6F1E013821282AA
:100CF00088EE93E0A0E0B0E084839583A683B78379
:100D000084E091E09183808385EC90E095878487EF
:100D100084EC90E09787868780EC90E0918B808BC5
:100D200081EC90E0938B828B82EC90E0958B848BAE
:100D300086EC90E0978B868B118E128E138E148E1C
:100D40000895EE0FFF1F0590F491E02D0994F8949B
:020D5000FFCFD3
:100D5200000000008302E3011002D00241021F02E0
:100D620033020D0A0044657465637465642050495A
:100D72004331384C4631383437210052656164655D
:100D82006E204944206973206E6F7420636F727203
:100D92006563742E2053686F756C64206265203021
:100DA200783134413020616E642069733A203078A2
:020DB20000003F
:00000001FF
