:10000000803102288731DA2F0B3021002502B930E8
:1000100003192402031C0E280130080000300800D8
:100020008930F2009930F3009231A2228031003AF7
:10003000031D5E28023020006806031D5E289D31E6
:10004000AA258031003A03195E286230F200993007
:10005000F3009231A2228031003A03195E289431D4
:10006000FA248031003A03195E2891314021803111
:10007000003A03195E2800302100B0000030AF00C4
:100080000030AE000030AD00B101B10A893020006F
:10009000A5009930A600A701A70A94310C2480314D
:1000A0002000E5019E3102268031FF30F40003304C
:1000B000F50001309F312D278031D1288930F200A1
:1000C0009930F3009231A2228031003A0319892835
:1000D000023020006806031D89289D31AA25803141
:1000E000003A031989286230F2009930F300923106
:1000F000A2228031003A031989289431FA248031F0
:10010000003A03198928913140218031003A031DBA
:10011000D1289D31AA258031003A031DAC288930B1
:100120002000A5009930A600A70194310C2480314D
:10013000B1013008031DAA282F08031DAA28393051
:100140002D0201302E3B0318AA282000E601E60A02
:100150000230C2280430C2289431FA248031003A97
:100160000319B828913140218031003A031DC72876
:100170008930A5009930A600A70194310C24803164
:10018000B10107302000B1003108E900D1288930E1
:10019000A5009930A600A70194310C248031B1014B
:1001A000A828033020006906031908009E310226A2
:1001B00008002000AD007430F2009930F300923155
:1001C000A2228031FA00FB0120002D088600870161
:1001D00001080139FC007A08FC0401087C06FE399C
:1001E0007C0681007730F2009930F3009231A22230
:1001F0008031FA00FB0120002D0886008701010CE8
:100200000139FC007A08FC04FC0D01087C06FD396C
:100210007C0681006108803AFA0080307A02031D72
:1002200013293C306002031C1729013018290030C3
:10023000FB00FC0120002D0886008701010CFD0059
:100240007D0C0139FD007B08FD04FD0DFD0D01084D
:100250007D06FB397D0681003C306702031C322994
:10026000013033290030FA00FB012D088600870198
:10027000010CFC00FC0C7C0C0139FC007A08FC042D
:10028000FC0DFC0DFC0D01087C06F7397C06810095
:100290006108803AFA0080307A020830031960025F
:1002A00003185429013055290030FB00FC012000BF
:1002B0002D0886008701010E0139FD007B08FD0431
:1002C000FD0E01087D06EF397D06810008306702CA
:1002D00003186C2901306D290030FA00FB012D084C
:1002E00086008701010E0139FC007A08FC04FC0E2F
:1002F00001087C06EF397C0681006830F2009930F5
:10030000F3009231A2228031FA00FB0120002D0877
:1003100086008701010EFC007C0C0139FC007A0884
:10032000FC04FC0EFC0D01087C06DF397C06810014
:100330006B30F2009930F3009231A2228031FA0042
:10034000FB0120002D0886008701010EFC00FC0C3B
:100350007C0C0139FC007A08FC04FC0EFC0DFC0D41
:1003600001087C06BF397C0681006E30F2009930AE
:10037000F3009231A2228031FA00FB0120002D0807
:1003800086008701010D010D0139FC007A08FC048B
:10039000FC0CFC0C01087C067F397C068100753062
:1003A00021004202303003194102031CD9290130D7
:1003B000DA290030FA00FB0120002D0A86008701AF
:1003C00001080139FC007A08FC0401087C06FE39AA
:1003D0007C068100A00103306906031DFD29610828
:1003E000803AFA0080307A02031DF8293230600228
:1003F000031CFD292000A001A00A20002008FA000B
:10040000FB012D0A86008701010C0139FC007A08E6
:10041000FC04FC0D01087C06FD397C068100A1016D
:1004200003306906031D1A2A32306702031C1A2A98
:10043000A101A10A2108FA00FB012D0A860087010B
:10044000010CFC007C0C0139FC007A08FC04FC0D5A
:10045000FC0D01087C06FB397C068100A2010730F7
:100460006906031D412A21003D080319412A003075
:100470003C025F3003193B020318412A2000A2010D
:10048000A20A20002208FA00FB012D0A860087013B
:10049000010E0139FC007A08FC04FC0E01087C0600
:1004A000EF397C068100A30107306906031D642A29
:1004B00057080319642A0030560204300319550204
:1004C0000318642AA301A30A2308FA00FB012D0ADA
:1004D00086008701010EFC007C0C0139FC007A08C3
:1004E000FC04FC0EFC0D01087C06DF397C06810053
:1004F000A401A40A8030F2009930F3009231A222C4
:100500008031003A03199A2A8330F2009930F300BF
:100510009231A2228031003A03199A2AB330F200B4
:100520009930F3009231A2228031003A03199A2ABD
:100530002000A40120002408FA00FB012D0A8600F7
:100540008701010EFC00FC0C7C0C0139FC007A08D0
:10055000FC04FC0EFC0DFC0D01087C06BF397C067A
:1005600081006808FA002D08023E860087017A089B
:10057000810007306906031D08006D1CED18C82AAC
:100580006D1DED19C82AEE1C6E19C82A6D1E0800D3
:10059000A5016108803AFA0080307A02031DD22A50
:1005A0003C3060020318E92A20006008033EFA008C
:1005B0000030613DFB007B08803AFC0080307C020B
:1005C000031DE42A3C307A02031CE92A2000A5011D
:1005D000A50A20002508FA00FB012D0A86008701E4
:1005E000010CFC00FC0C7C0C0139FC007A08FC04BA
:1005F000FC0DFC0DFC0D01087C06F7397C06810022
:10060000A6013C30670203181A2B6708033EFA0064
:10061000003003180130FB007B08803AFC0080307A
:100620007C02031D152B3C307A02031C1A2B200080
:10063000A601A60A20002608FA00FB012D0A860062
:100640008701010CFC00FC0C7C0C0139FC007A08D1
:10065000FC04FC0DFC0DFC0D01087C06F7397C0642
:100660008100A70102306F06031D562B6108803AF6
:10067000FA0080307A02031D3F2B323060020318EB
:10068000562B20006008033EFA000030613DFB005D
:100690007B08803AFC0080307C02031D512B3230F5
:1006A0007A02031C562B2000A701A70A2000270866
:1006B000FA00FB012D0A86008701010CFC00FC0CEE
:1006C0007C0C0139FC007A08FC04FC0DFC0DFC0DCF
:1006D00001087C06F7397C068100A80102306F060C
:1006E000031D8B2B3230670203188B2B6708033EE8
:1006F000FA00003003180130FB007B08803AFC0050
:1007000080307C02031D862B32307A02031C8B2B37
:100710002000A801A80A20002808FA00FB012D0AE1
:1007200086008701010CFC00FC0C7C0C0139FC00EC
:100730007A08FC04FC0DFC0DFC0D01087C06F73961
:100740007C068100A90102306F06031DAD2B3230FB
:100750006702031CAD2BA901A90A2908FA00FB01B5
:100760002D0A86008701010CFC007C0C0139FC007D
:100770007A08FC04FC0DFC0D01087C06FB397C06A4
:100780008100AA0102306F06031DD42B6108803A54
:10079000FA0080307A02031DCF2B32306002031C36
:1007A000D42B2000AA01AA0A20002A08FA00FB0183
:1007B0002D0A86008701010C0139FC007A08FC042F
:1007C000FC0D01087C06FD397C068100AB01083078
:1007D0006702031CFF2B6708FD3EFA00FF30031879
:1007E0000030FB007B08803AFC0080307C0208303F
:1007F00003197A020318FF2B2000AB01AB0A20007B
:100800002B08FA00FB012D0A86008701010CFC0071
:10081000FC0C7C0C0139FC007A08FC04FC0DFC0D7E
:10082000FC0D01087C06F7397C068100AC016108EB
:10083000803AFA0080307A02083003196002031C03
:10084000352C20006008FD3EFA00FF30613DFB00C2
:100850007B08803AFC0080307C02083003197A0261
:100860000318352C2000AC01AC0A20002C08FA003B
:10087000FB012D0A86008701010CFC00FC0C7C0C9E
:100880000139FC007A08FC04FC0DFC0DFC0D01088C
:100890007C06F7397C0681000800A00104309E31F7
:1008A000AB2684312C03031D5A2CAC011C30913132
:1008B00018218431210038082000C60021003908A1
:1008C0002000C70021003A082000C8004608EA00BE
:1008D0004708EB004808EC006A308031D9208431A9
:1008E0006803031D782C65080319782CE301E30ADB
:1008F000023021005102031C7F2CCB01CB0A4C0893
:10090000031D7A2D20006308031D7A2D19309D31B7
:10091000C22584312000C3004308D200D1016D08F4
:100920000139C3000630C335FF3E031D932C433508
:10093000C4004408D1046D0C0139C3000530C3352F
:10094000FF3E031D9F2C4335C4004408D1046D0CA9
:10095000890C0139C3000430C335FF3E031DAC2CA4
:100960004335C4004408D1046D0CC300C30C430CD0
:100970000139C4000330C435FF3E031DBB2C443590
:10098000C5004508D1046D0E0139C3000230C335DE
:10099000FF3E031DC72C4335C4004408D1046D0E2F
:1009A000890C0139C3000130C335FF3E031DD42C2F
:1009B0004335C4004408D1046D0E890C890C0139FB
:1009C0000907C3004308D1046D0D6D0D0139C30043
:1009D0004308D104D0016E080139C3000630C33585
:1009E000FF3E031DEF2C4335C4004408D0046E0CB9
:1009F0000139C3000530C335FF3E031DFB2C4335D1
:100A0000C4004408D0046E0C890C0139C3000430C2
:100A1000C335FF3E031D082D4335C4004408D004F0
:100A20006E0CC300C30C430C0139C4000330C43541
:100A3000FF3E031D172D4435C5004508D0046E0E3A
:100A4000890C890C0139C3000230C335FF3E031DF8
:100A5000252D4335C4004408D00421004B08200054
:100A6000C3000130C335FF3E031D322D4335C400A2
:100A70004408D0046F080339C3004308D004510868
:100A8000C3004308F0005208903100208431200058
:100A90005008C3004308F0005208013E9031002086
:100AA000843120005208023E9131182184312030D7
:100AB0002000C3004308CF0052080B3EC3000030A3
:100AC00003180130C400013044020030031943020E
:100AD00003186F2D5208063EC3004308CF004F088D
:100AE000C3004308F0001930903100208431210008
:100AF000CC01CC0A21004B08031D812D20006E1F64
:100B0000EB2D9E3102268431A00104309E31AB26AC
:100B1000843150080319922D9D31CE2584319631B0
:100B20006E26843120006808031D992DD701D70A4D
:100B30009C2DD501D601D70100305602043003198F
:100B400055020318010020006E1FBD2D0430C300A4
:100B50004308A000F430A1000130A200F430A3004B
:100B60000130A400E830A5000330A600E830A7005B
:100B70000330A800A9011030D32D0430C30043086E
:100B8000A000F430A1000130A200F430A300013035
:100B9000A400E830A5000330A600E830A700033029
:100BA000A800A9010F308C31212484319D318C257E
:100BB0008431003A0319E32D5A080319E32D01305B
:100BC000D8070030D93D6400903182208431C300C1
:100BD0004308E800842D6A1CEA18652E6A1DEA198C
:100BE000652E6A1EEA1A652E6A1FEA1B652E6B1CAB
:100BF000EB18652E6B1DEB19652E68080319072E7F
:100C000063080319652E02306806031D652E210056
:100C100041084204031D652E20005708031D142EB1
:100C2000D501D601D701D70A21003D08031D1D2E8D
:100C3000BB01BC01BD01BD0A692E3D080319692E27
:100C400000303C025F3003193B02031C692E200078
:100C500057080319692E0030560204300319550253
:100C6000031C692E2100BD012000DD012100350893
:100C70002000C900210036082000CA0021003708E2
:100C80002000CB004908ED004A08EE004B08EF00B9
:100C9000210032082000CC00210033082000CD00C4
:100CA000210034082000CE004C08EA004D08EB007B
:100CB0004E08EC009E310226E3012100CC010230F7
:100CC0002000C3004308E90008002100BD01200006
:100CD000D70120006D1C832E0430C3004308A00000
:100CE000F430A1000130A200F430A3000130A400D0
:100CF000E830A5000330A600E830A7000330A800C4
:100D0000A9010430AB2FED1C9C2E0430C300430816
:100D1000A000F430A1000130A200F430A3000130A3
:100D2000A400E830A5000330A600E830A700033097
:100D3000A800A9010530AB2F6D1DB52E0430C300EE
:100D40004308A000F430A1000130A200F430A30059
:100D50000130A400E830A5000330A600E830A70069
:100D60000330A800A9010630AB2FED1DCE2E0430B4
:100D7000C3004308A000F430A1000130A200F43009
:100D8000A3000130A400E830A5000330A600E8303D
:100D9000A7000330A800A9010730AB2FED1EE72EF6
:100DA0000430C3004308A000F430A1000130A200C9
:100DB000F430A3000130A400E830A5000330A60001
:100DC000E830A7000330A800A9010830AB2F6D1F41
:100DD000002F0430C3004308A000F430A10001300C
:100DE000A200F430A3000130A400E830A5000330D5
:100DF000A600E830A7000330A800A9010930AB2FF6
:100E0000ED1F192F0430C3004308A000F430A100E7
:100E10000130A200F430A3000130A400E830A500A6
:100E20000330A600E830A7000330A800A9010A306B
:100E3000AB2F6E1C322F0430C3004308A000F430E7
:100E4000A1000130A200F430A3000130A400E8307A
:100E5000A5000330A600E830A7000330A800A901D0
:100E60000B30AB2FEE1C4B2F0430C3004308A00007
:100E7000F430A1000130A200F430A3000130A4003E
:100E8000E830A5000330A600E830A7000330A80032
:100E9000A9010C30AB2F6E1D642F0430C300430832
:100EA000A000F430A1000130A200F430A300013012
:100EB000A400E830A5000330A600E830A700033006
:100EC000A800A9010D30AB2F6D1E7D2F0430C3008B
:100ED0004308A000F430A1000130A200F430A300C8
:100EE0000130A400E830A5000330A600E830A700D8
:100EF0000330A800A9010E30AB2F63080319952F0A
:100F0000A001A00A2C30A1000130A2002C30A300C7
:100F10000130A400EE30A5000230A600EE30A7009C
:100F20000230A800A9010330AB2F0430C3004308EE
:100F3000A000F430A1000130A200F430A300013081
:100F4000A400E830A5000330A600E830A700033075
:100F5000A800A90114308C312124843120005D08BF
:100F6000031DBB2F023068060319BB2FDB01DC0118
:100F7000DD01DD0A080002306806031DC12FDD0116
:100F8000080007305C02553003195B02031C08009F
:100F90005D03031D08005A08031D08005808590482
:100FA000031D08000230680603190800DD01E9018D
:100FB000E90A0800313084009E308500DD3086006B
:100FC0000030870010309D317E25873155308400F8
:100FD000003085001B309D3178258731A03084009A
:100FE000003085003D309D317825873120308400E8
:100FF000013085004D309D317825200097310F2F2D
:10100000FF3020009B009A01911006309C000800E0
:10101000210063082000B100210064082000B20014
:10102000210065082000B3003130A5000030A60083
:101030000730B0003008A70094310C248831B93053
:101040002000A5009930A600A701A70A94310C241E
:10105000883134302000B000F130890B2D28B00BDE
:101060002D280032210060082000B4002100610812
:101070002000B500210062082000B6003430A50031
:101080000030A6000730B0003008A70094310C24CF
:10109000883104302000B0003008A00005309E31B7
:1010A000AB2688314C302000B0003008A00006305C
:1010B0009E31AB268831C0302000B0003008A0003F
:1010C00003309E31AB268831B3302000A500993023
:1010D000A600A701A70A94310C2488315D082000DE
:1010E000B70021005E082000B80021005F08200042
:1010F000B9003730A5000030A600A70194310C24B8
:10110000883186302000A5009930A600A7019431CF
:101110000C24883189302000A5009930A600A70151
:1011200094310C240800013093318B23883130082E
:10113000B6003108B700B635B70D0E30B800380824
:10114000F00064089E3163268831223E860001301B
:1011500087003608C03F3708C13F023093318B23E8
:1011600088313008B6003108B700B635B70D0E30FB
:10117000B8003808F00064089E3163268831243EA8
:101180008600013087003608C03F3708C13F033072
:1011900093318B2388313008B6003108B700B6355B
:1011A000B70D0E30B8003808F00064089E31632691
:1011B0008831263E8600013087003608C03F370858
:1011C000C13F043093318B2388313008B600310899
:1011D000B700B635B70D0E30B8003808F000640817
:1011E0009E3163268831283E86000130870036080C
:1011F000C03F3708C13F053093318B238831300819
:10120000B6003108B700B635B70D0E30B800380853
:10121000F00064089E31632688312A3E8600013042
:1012200087003608C03F3708C13F063093318B2313
:1012300088313008B6003108B700B635B70D0E302A
:10124000B8003808F00064089E31632688312C3ECF
:101250008600013087003608C03F3708C13FBF0114
:10126000BF0ABC01BD01BE013F08B6000130B63562
:10127000890B372920303607B7000E30B800380800
:10128000F0003E089E31632688313707B9003908DF
:10129000860001308700403FBA00413FBB003A085A
:1012A000BC073B08BD3D0130B6003608BE07043020
:1012B0003E02031C3429210066082000B600B70155
:1012C0003608F0003708F1003D08F3003C08F20052
:1012D0009131C921883120003F35583E86000130C8
:1012E00087007008C03F7108C13F0130B600360862
:1012F000BF0707303F02031C31296408013E033950
:10130000B6003608E4000430210066020318080025
:1013100001302000B60036082100E6070800680307
:10132000031DAE29803104208931003A0319AE290A
:101330006230F2009930F3009231A2228931003AF2
:101340000319AE2920006508031DAE299431FA2443
:101350008931003A0319AE290630E42920006803D8
:10136000031DB7296503031DB7290730E42902309F
:101370006806031DE8296608031DE8299D31AA2592
:101380008931003A0319E8296230F2009930F300FC
:101390009231A2228931003A0319E8299431FA24C2
:1013A0008931003A0319E82921006803031DDE2969
:1013B000933114238931003A031DE2292100680882
:1013C000031D752A03302000B3003308E900752A95
:1013D000200068080319F32902306806031D042A57
:1013E00066080319042A5D08031D042A9431FA24AF
:1013F0008931003A0319042ADB01DC01DD01DD0A31
:101400002100E801E80A752A9431FA248931003A6A
:101410000319B52902306806031D1B2A6608031D3F
:101420001B2A9D31AA258931003A031D1B2A200061
:10143000E601E60A752A023020006806031D292A03
:1014400066080319292AFF30F4000330F500023042
:10145000722A02306806031D372A6230F200993082
:10146000F3009231A2228931003A031D6D2A200037
:101470006808031D5C2A02309E31D4268931003A67
:101480000319442ACF01CF0A4F0803194D2A93317B
:1014900014238931003A031D512A21004F08031DEE
:1014A000752A2100CF01FF30F4000330F50002302F
:1014B0009F312D278931002A6803031D752A623068
:1014C000F2009930F3009231A2228931003A0319D7
:1014D000752A20006508031D752AFF30F4000330CB
:1014E000F50006309F312D27893120006603031D4A
:1014F000852A103021002302043003192202031828
:10150000852A2000E6012100E8010230200068065B
:10151000031DE6016508031D9A2A803104208931E4
:10152000003A031D9A2A02302000680603199A2AFD
:10153000E501E50A033020005C02AB3003195B02D1
:10154000031CAA2A5D03031DAA2ADD01DB01DC01BD
:10155000E901E90A0230690603190800DD019E313C
:1015600002262100CF01E801E80A08008630F200D7
:101570009930F3009231A2228A31003A031DF12AF8
:1015800020006803031DF12A6230F2009930F30055
:101590009231A2228A31003A0319F12A80310420C3
:1015A0008A31003A0319F12A9431FA248A31003A37
:1015B0000319F12A8630A5009930A600A701A70AD1
:1015C00094310C248A31CE019E3102268A312100C9
:1015D000E701E70ACD01AC01AC0A2000D501D60134
:1015E0000E2C8630F2009930F3009231A2228A311B
:1015F000003A0319942B20006803031D942B6230DA
:10160000F2009930F3009231A2228A31003A031994
:10161000942B803104208A31003A0319942B9431A1
:10162000FA248A31003A0319942B2100E701E70AD2
:10163000CD017F2BD701D70A0430B2003208A000B9
:10164000E830A1000330A2000030A300A400003065
:10165000A500A6000030A700A8002030B300330882
:10166000A90001308C3121248A310030200056023B
:10167000023003195502031C0E2C0130B20032084F
:101680002100CE079E3102268A310E2CD701D70ABF
:1016900002301D2BD701D70AA001A00AE830A10013
:1016A0000330A2000030A300A4000030A500A60073
:1016B0000030A700A8002030B2003208A900013095
:1016C0008C3121248A310030200056020230031967
:1016D0005502031C0E2C0130B20032082100CE0747
:1016E0002000DA01D801D901D701ED2AFF30F4003A
:1016F0000330F50001309F312D278A310E2C4E0822
:101700002000B200B3013308003A0319882B762B6E
:101710003208003A03191A2B013A0319462B033AEF
:1017200003194A2B762B0E2C803104208A31003A83
:10173000031DA72B2000E501E50A8630A50099309E
:10174000A600A70194310C248A310230B62B9431C3
:10175000FA248A31003A031DBB2B8630A50099304C
:10176000A600A70194310C248A3107302000B20072
:101770003208E9000E2C02306806031DF72B863074
:10178000A5009930A600A70194310C248A31E70105
:10179000E70A4D08031DD42B9E3102268A31D7015A
:1017A000D70A2100CD01CD0A07302000B20032084F
:1017B000A000F430A1000130A200F430A3000130F9
:1017C000A400E830A5000330A600E830A7000330ED
:1017D000A800A90101308C3121248A310030200079
:1017E00056020230031955020318A52B0E2C863021
:1017F000A5009930A600A70194310C248A31CD01AF
:101800006703031D082C9E3102268A312100E7015F
:101810009431A9248A31003A031DA52B06302000FB
:101820006906031908002100AC011C309131182110
:101830008A312100CE01CD01E701E70A9E3102265F
:1018400008002000AA005908FA005808F9000530DD
:10185000F935FA0D890B282C7908AB007A08AC0011
:10186000FF30AF000330B0002908803A7F3E031CF0
:101870003B2CAF01B0015A08031D5E2C3008F50067
:101880002F08F40000309F312D278C312000D80123
:10189000D901DA01DA0A03142A0DF90079082100C6
:1018A000C8002000E2012608DF002508DE005708F6
:1018B00003195E2C0130D5070030D63D6208031DA8
:1018C0007D2C2C085F02031D672C2B085E02031879
:1018D0007D2C0130F9007908E2072A080319782CD9
:1018E0003008F5002F08F40020089F312D278C3197
:1018F00020002108DE072208DA2C21004808FF3EDC
:10190000F900FF3003180030FA0020006208790661
:101910007A04031DA42C2C085F02031D912C2B08B4
:101920005E020318A42C0130F9007908E2073008A0
:10193000F5002F08F40000309F312D278C31200056
:101940002708DE072808DA2C620821004806031D54
:10195000BF2C20002C085F02031DB02C2B085E0258
:101960000318BF2C3008F5002F08F40000309F3119
:101970002D278C312000DA01D801D901EB2C200071
:10198000621CDC2C2C085F02031DC82C2B085E0295
:101990000318DC2C0130F9007908E2073008F50063
:1019A0002F08F40000309F312D278C3120002308B0
:1019B000DE072408DF3DEB2C6218EB2C2C085F02BD
:1019C000031DE42C2B085E020318EB2C0130F900F8
:1019D0007908E207702C9F31E3278C3171082000D1
:1019E000AE007008AD00A91F532D2908F900FA01B7
:1019F000F91BFA03F909FA09F90A0319FA0A7A082C
:101A0000803AFB002E08803A7B02031D092D2D0829
:101A1000790203181A2D20002908F900FA01F91B90
:101A2000FA032D087907F0002E087A3DF1009E3167
:101A3000FF26080020002908F900FA01F91BFA0323
:101A4000F909FA09F90A0319FA0A7A08803AFB0037
:101A50002E08803A7B02031D2F2D2D087902031CCE
:101A600008000030F000F1009E31FF268C3120008C
:101A70005F08FA005E08F9000530FA36F90C890BA8
:101A80003D2D7908D8007A08D9002A03031D0800E3
:101A9000DA01D801D9015708031908000130D50728
:101AA0000030D63D08002908803A7F3E031C08001C
:101AB0002908F900FA01F91BFA032D087907FB0040
:101AC0002E087A3DFC007C08803AFD0083307D02C0
:101AD000031D6C2DFF307B02031C0B2D20002908F9
:101AE000F900FA01F91BFA032D087907FB002E080B
:101AF0007A3DFC007C08803AFD0083307D02031DA6
:101B0000832DFF307B02031C0800FF30F000033000
:101B1000F1009E31FF268C3120005F08FA005E083C
:101B2000F9000530FA36F90C890B922D7908013E3F
:101B3000D80000307A3D442D2000B80001309E319D
:101B4000BF268D312508B5002408B400AF01AF0AC7
:101B50000130A7000030A8002F0AB02DA735A80D2E
:101B6000890BAE2D2708F0002808F1003808DA3E6E
:101B7000840099300318013E85000008A900AA01DD
:101B80002908F2002A08F3009131C9218D3171082A
:101B90002000B7007008B6003608A7002708B90073
:101BA0003908A700A801A735A80D3835E93E8600F9
:101BB0008701403FA900413FAA0029082707840068
:101BC0002A08283D85000008AB00AC012B08F00076
:101BD0002C08F1000A30F2000030F3009F318F270B
:101BE0008D3171083502031DF72D7008340203187A
:101BF000BF2E0130A7002708AF073708803AA7009B
:101C000080302702031D062E02303602031C2D2EC3
:101C100001302000A7000030A8002F0A112EA735A0
:101C2000A80D890B0F2E2708F0002808F1003808AE
:101C3000DA3E840099300318013E85000008A900AF
:101C4000AA012908F2002A08F3009131C9218D3137
:101C500071082000B7007008B60020003708803AED
:101C6000A70080302702031D372E013036020318EB
:101C70003E2E01302000B6000030B70020003908A9
:101C80003607A70037080318370AA8003808DA3ED5
:101C9000840099300318013E85000008FF3EA9002A
:101CA000FF3003180030AA0028082A02031D5A2E0C
:101CB00027082902031CEF2E3908A700360827023F
:101CC000A80037090318890AA900A91BEF2E3908B3
:101CD000A700A801A735A80D3835E93E8600870181
:101CE000403FA900413FAA002908270784002A088D
:101CF000283D85000008AB00AC012B08F0002C0843
:101D0000F1000A30F2000030F3009F318F278D314F
:101D100035087102031D8E2E340870020318932EAD
:101D200039083607CD2D3908A700A801A735A80D19
:101D30003835E93E86008701403FA900413FAA00AF
:101D40002908270784002A08283D85000008AB00E1
:101D5000AC012B08F0002C08F1000A30F200003032
:101D6000F3009F318F278D3171083502031DBA2E84
:101D7000700834020318D02D36083902CD2D3908E9
:101D8000A700A801A735A80D3835E93E86008701D0
:101D9000403FA900413FAA0027082907AB002808B7
:101DA0002A3DAC0002302B0784002C0803182C0AB3
:101DB00085000008AD00AE012D08F0002E08F100EE
:101DC0000A30F2000030F3009F318F278D31710807
:101DD0003502031DED2E700834020318F92D380862
:101DE000DA3E840099300318013E85000008FF3E6A
:101DF000A700FF3003180030A80039082706280480
:101E0000031D072F3908FF3EA7002708B90039082E
:101E1000A700A801A735A80D3835E93E860087013F
:101E2000403FA900413FAA002908270784002A084B
:101E3000283D85000008AB00AC012B08F0002C0801
:101E4000F1000A30F2000030F3009F318F278D310E
:101E500034087002F6003508713BF7009F311627F1
:101E60008D3177082000B1007608B0003908A7004E
:101E7000A801A735A80D3835E93E86008701403F07
:101E8000A900413FAA0027082907AB0028082A3DDE
:101E9000AC0002302B0784002C0803182C0A8500A4
:101EA0000008AD00AE012D08F0002E08F1000A3048
:101EB000F2000030F3009F318F278D31340870021B
:101EC000F6003508713BF7009F3116278D317708F2
:101ED0002000B3007608B2003108803AA70033082A
:101EE000803A2702031D762F320830020318952FFF
:101EF00020003908A700A801A735A80D3835E93E0C
:101F000086008701403FA900413FAA002708290712
:101F1000AB0028082A3DAC0001302B0784002C08B8
:101F200003182C0A85000008080020003308803AB6
:101F3000A7003108803A2702031DA02F3008320283
:101F40000318BF2F20003908A700A801A735A80D46
:101F50003835E93E86008701403FA900413FAA008D
:101F600027082907AB0028082A3DAC0003302B07BF
:101F700084002C0803182C0A8500000808002000A3
:101F800033083106031DC62F32083006031DE42F27
:101F90003908A700A801A735A80D3835E93E860005
:101FA0008701403FA900413FAA0027082907AB004D
:101FB00028082A3DAC0001302B0784002C080318A8
:101FC0002C0A8500000808003908A700A801A735D9
:101FD000A80D3835E93E86008701403FA900413F02
:101FE000AA0027082907AB0028082A3DAC000130C9
:101FF0002B0784002C0803182C0A85000008080011
:10200000F1007108230091007008930095131513D7
:10201000151500308B1B0130F2008B1355309600E4
:10202000AA3096009514951813281511720C031CEC
:102030008B1303188B170800FC007708FA007A0846
:10204000F2007C0890313C209031FB007B08FD00C1
:102050007D0803192D287D0808002100CA01CA0A3D
:102060007808FA007A08F2007908FB007B08F30090
:102070007C0892316A220800F4009E3121269031BA
:102080009031F0209031F3007308F50075080319C2
:102090004B287508080074089E31742690319031E1
:1020A000F0209031F3007308F5007508031D4928EE
:1020B00072089E31742690319031F020080009306A
:1020C00093318B2390313108BD003008BC000730BC
:1020D000F0000030F1001E30B8000530B9003C08B7
:1020E0003802BA003D08393BBB003A35F2003B0DDF
:1020F000F300943158247008193EB6000030713D49
:10210000B700080007309E31BF2690312508A8008F
:102110002408A70005302802DD3003192702031C1C
:1021200093280230080005302802DC30031927020A
:102130000318A32801302802913003192702031C39
:10214000A3280130080000300800083093318B23A9
:1021500090313108B8003008B70001309E31BF26F9
:1021600090312508BA002408B90039083702BB00AD
:102170003A08383BBC003C08803AB6008030360252
:10218000031DC42865303B02031CC828003008002A
:10219000013008007C08F0007D08F100F201F30135
:1021A0000030F7000030F6000930F500C430F400CC
:1021B00091316A21903170082000A0007108A100BF
:1021C0007208A2007308A3000A30A336A20CA10C67
:1021D000A00C890BE5282108FD002008FC00080060
:1021E0002400161FF7289E31112601300800951F84
:1021F000FE2895139E31112602300800151F05296F
:1022000015139E311126043008002000921D0D295F
:1022100092119E31112608300800FB30210049023E
:10222000031C16299E3111261030080000300800CA
:10223000F40021002B08F3007308F00074089031BB
:102240000020913121002A08F3007308F00074087F
:10225000013E90310020913121002908F3007308DC
:10226000F0007408023E90310020913121002808CE
:10227000F3007308F0007408033E9031002008005A
:10228000B001B00A6108803AAE0080302E02031D12
:102290004B293230600203184F2901305029003099
:1022A0002000AF002F08B0053230670203185A290A
:1022B00001305B290030AE002E08B0053008031D48
:1022C000682907306906031968296D308031D920E3
:1022D000300808000030FB000030FA000030F90040
:1022E0000030F800701C7C297408F8077508F93D67
:1022F0007608FA3D7708FB3D0130F435F50DF60D13
:10230000F70D890B7D290130F336F20CF10CF00C3E
:10231000890B84297308720471047004031D7229E7
:102320007B08F3007A08F2007908F1007808F000E1
:1023300008008030F2009930F3009231A2229131EE
:10234000003A0319B7298330F2009930F300923133
:10235000A2229131003A0319B729B330F200993023
:10236000F3009231A2229131003A031DC7296D304A
:102370008031D92091319D31CE25913196316E2613
:1023800007302000C3004308E90001300800003096
:102390000800F501F601700871040319F829F70126
:1023A000F70AF11BDD290130F035F10D890BD42935
:1023B0000130F4007408F707D1290130F535F60D26
:1023C000890BDE2971087302031DE8297008720267
:1023D000031CEF297008F2027108F33B75140130F9
:1023E000F136F00C890BF0290130F702031DDD29CD
:1023F0007608F1007508F0000800C430A0000D3028
:10240000A1000030A2000030A3007C08A4007D08D9
:10241000A500A601A7012435F000250DF100260D29
:10242000F200270DF3000030F7000030F60009300D
:10243000F500C430F40091316A2191317008200018
:10244000A0077108A13D7208A23D7308A33D0B309F
:10245000A336A20CA10CA00C890B282A2108FD0090
:102460002008FC0008008F30A5009930A600A701C5
:10247000A70A94310C2492318530890B3D2A000043
:102480008F302000A5009930A600A70194310C24BC
:1024900092318530890B4A2A00008F302000A50038
:1024A0009930A600A701A70A94310C2492310B3071
:1024B0002000C4002630C3005D30890B5D2AC30BA9
:1024C0005D2AC40B5D2A003296316E269231883126
:1024D00008200800F5004A080319702ACA01892A51
:1024E0009E31212692319031F0209231F40074080F
:1024F000F6007608031D9A2A75089E3174269231DB
:102500009031F0209231F4007408F6007608031D33
:102510009A2A0130F302730A03199C2A7208860072
:10252000870101089E31742692310130F40074084D
:10253000F207802A760808009E31112692319031E8
:10254000F020080072088400730885000008F40079
:102550007408F7007308F5007208F400013074077E
:10256000840075080318750A85000008F6007608CF
:10257000F8007308F5007208F40002307407840054
:1025800075080318750A85000008F6007608F9003A
:1025900079089E3152269231F4007708D43E8600A5
:1025A00087010108F500780AD62AF536890BD52A65
:1025B0007508740508009D31B625923100309F31B1
:1025C0005D27923171082000A5007008A40024083E
:1025D000F0002508F100F201F3010030F700263089
:1025E000F6002530F500A030F40091316A219231D7
:1025F00070082000A0007108A1007208A2007308F2
:10260000A3000A30A336A20CA10CA00C890B022B4C
:102610000130A336A20CA10CA00C890B092B2108B8
:10262000FD002008FC0008003230F0000030F1000E
:102630002608193EF2000030273DF3009131C921F0
:10264000933170082000B1003108B200D701D70AD9
:102650000630B1003108A000FA30A1000030A2001D
:10266000FA30A3000030A400EE30A5000230A6002E
:10267000F430A7000130A800A90132088C312124D0
:102680009331003020005602023003195502031C1A
:102690004D2B9E3102260130080000300800023028
:1026A0006806031D5B2BFF30F4000330F500073094
:1026B0009F312D27933121004008031D642BBE015B
:1026C000BF01C001C00A712B08303F028C300319D2
:1026D0003E02031C712BC00103302000B100310801
:1026E000E90002302000680603197D2B2100C0019B
:1026F00002302000B1003108E9009431FA2493310E
:10270000003A031D08002100C00107302000B1007D
:102710003108E90008002000B50000309D316E2529
:1027200093311E309D31DB2593310032003200326F
:10273000003204309D31DB2593317D302000A5002F
:102740009930A6003508B2003208A70094310C2455
:102750009331A0300032890BAA2B04309F315D27C2
:10276000933171082000B4007008B3007D30A500DB
:102770009930A600A70194310C249331200034082D
:10278000FD003308FC009131FD217D08B1007C087B
:10279000B0000800F5009E31212693319031F020E1
:1027A0009331F4007408F6007608031DF82B7508C1
:1027B00001389E31742693319031F0209331F4002A
:1027C0007408F6007608031DF82B0130F302730A33
:1027D0000319FA2B9E3198269331F4007208860073
:1027E0008701740881000130F4007408F207DC2BC3
:1027F000760808009E31412693319031F0209331C4
:10280000F4007408F6007608031DF82B9E3111269B
:1028100093319031F02008002508840026088500B7
:102820000008A8002808AE002608A9002508A8006E
:1028300001302807840029080318290A85000008A8
:10284000AA002A08AF002608A9002508A80002301F
:102850002807840029080318290A85000008AA000F
:102860002A08AC002708A8002F0A372CA835890BA6
:10287000362C2C089E31522694312000A9002F0AB4
:10288000422CA935890B412C2908FF3AAA002E08B1
:102890009F31AA2794312A052804AB002B08AD00EC
:1028A0002D08A8002808A0002E089E31AB2608009D
:1028B000F601F11F622CF009F109F00A0319F10A7F
:1028C000F601F60AF31F6D2CF209F309F20A031957
:1028D000F30A0130F4007408F606F701F8017008F5
:1028E000710403199C2CF501F50AF11B812C0130B0
:1028F000F035F10D890B782C0130F4007408F507E0
:10290000752C0130F735F80D890B822C7108730294
:10291000031D8C2C70087202031C932C7008F202A9
:102920007108F33B77140130F136F00C890B942CCD
:102930000130F502031D812C76080319A42CF70938
:10294000F809F70A0319F80A7808F1007708F00087
:102950000800053046020318B52C01302000B100F4
:1029600031082100C607003008004708031DCE2C9F
:10297000C830F0000030F1002408483EF200F43086
:10298000253DF3009131C92194317008013E2000AA
:10299000B10031082100C500C701C70A2000D701D6
:1029A000D70A0230B1003108A000FA30A10000308F
:1029B000A200FA30A3000030A400F430A5000130DA
:1029C000A600F430A7000130A800A90121004508A5
:1029D0008C3121249431003020005602023003193A
:1029E0005502031CB32C9E3102262100C601C701EB
:1029F000013008002000B001B00A6108803AAE0042
:102A000080302E02031D062D3C30600203180A2D73
:102A100001300B2D00302000AF002F08B0053C30F6
:102A200067020318152D0130162D0030AE002E0858
:102A3000B0056108803AAE0080302E0208300319DC
:102A40006002031C252D0130262D00302000AF0030
:102A50002F08B00508306702031C302D0130312DDE
:102A60000030AE002E08B00521005508031D3A2D98
:102A700001303B2D00302000AE002E08B00575302F
:102A8000210042023030031941020318492D013060
:102A90004A2D00302000AE002E08B0053008031D7E
:102AA000582D073069060319582D6D308031D92013
:102AB00030080800F401F40AF501F50A0230F000CC
:102AC0007008F6007635583E860001308700403F9A
:102AD000F000413FF1007435583E86000130870018
:102AE000403FF200413FF30071087302031D7A2D4D
:102AF000700872020318802D7608F0007008F40048
:102B00007535583E860001308700403FF000413F58
:102B1000F1007635583E860001308700403FF200D4
:102B2000413FF30071087302031D982D7008720273
:102B300003189E2D7608F0007008F5000130F000B3
:102B40007008F60707307602031C622D7408F00047
:102B50007008A1007435583E860001308700403F60
:102B6000A200413FA3007508F0007008A000753571
:102B7000583E860001308700403FA400413FA50039
:102B80000430A03E860087010230A03E840085010B
:102B9000403F0002A6000131413F003BA700080072
:102BA0002100D0019F31452795319D316B2595310D
:102BB00000309D316E25953121008D140D162300B6
:102BC0008D100D129D31CE25953196316E269531A1
:102BD00020008D180D1EE52D9031A5209531200087
:102BE000C30043082100D2001C309D31C22595311D
:102BF0002000C300C401C501C6011830C335C40D8F
:102C0000C50DC60D890BFE2D46082100AB00200026
:102C100045082100AA00200044082100A900200046
:102C200043082100A8001D309D31C22595312000A8
:102C3000C300C401C501C6011030C335C40DC50DA4
:102C4000C60D890B1D2E43082100A804200044084E
:102C50002100A904200045082100AA0420004608FC
:102C60002100AB041E309D31C22595312000C300E8
:102C7000C401C501C6010830C335C40DC50DC60D5C
:102C8000890B3C2E43082100A804200044082100A1
:102C9000A904200045082100AA04200046082100BC
:102CA000AB041F309D31C2252000C300C401C50103
:102CB000C60143082100A804200044082100A904FB
:102CC000200045082100AA04200046082100AB048A
:102CD00002302000C3004308E90008003C308600B1
:102CE0000030870007302000BA0000301E00BA0B09
:102CF000762E003021008D1801302000BC000030FD
:102D000021000D1A01302000BD00003023008D1875
:102D100001302000BE00003023000D1A01302000D9
:102D2000BF00003022008D1801302000C0000030AC
:102D300022000D1A01302000C10000302400951A35
:102D400001302000C2002400951221008D140D16C0
:102D500023008D100D1222000D122000BB010A303D
:102D600020003B020318CF2E21000D120D30890BDD
:102D7000B72E000021000D160630890BBD2E003243
:102D800020008D180D1EC92E0130BA003A08BB076D
:102D9000CA2EBB010630890BCB2E0032AF2E3C1C55
:102DA000D42E21008D14D62E21008D1020003D1C24
:102DB000DC2E21000D16DE2E21000D1220003E1CFF
:102DC000E42E23008D14E62E23008D1020003F1CDE
:102DD000EC2E23000D16EE2E23000D122000401CB9
:102DE000F42E22008D14F62E22008D102000411C9E
:102DF000FC2E22000D16FE2E22000D122000421C79
:102E0000042F24009516062F240095122000420856
:102E100003190C2F883108202100D00108009531BA
:102E2000D0259731640003309F31AA2797310730AE
:102E30009F31AA2797319131992197318831932079
:102E4000973195315A2597319E31862697319031A9
:102E500082209731D3005308E80090315F209731EA
:102E60003708E1003608E000210052088D319C252A
:102E70009731D3005308E70000309F31AA279731DC
:102E800001309F31AA27973104309F31AA2797310B
:102E900003309F31AA27973107309F31AA279731F6
:102EA0009231DB2297317D082100C2007C08C100ED
:102EB000913199219731003A031DA12F210050082B
:102EC00003197F2F01302000D30053082100D107C0
:102ED000023051020318732F9D31CE259731963160
:102EE0006E269731122F9D31CE25973196316E2661
:102EF000973107302000D3005308E900A12FD101FA
:102F0000A12F9531D0259731C42F9231332297319B
:102F1000C42F89318F219731C42F803110209731F0
:102F2000C42F93314F239731C42F9D31672597319B
:102F3000C42F8A31B6229731C42F84314D24973162
:102F4000C42F20006908D300D4015408003A0319A3
:102F5000AA2FC42F5308003A0319812F013A0319ED
:102F6000852F033A0319892F013A03198D2F073A48
:102F70000319912F013A0319952F033A0319992F39
:102F8000013A03199D2FC42F9D318C259731003AAA
:102F90000319122F210040080319D22F0130BE0758
:102FA0000030BF3D31080319DD2F0130AD0700307F
:102FB000AE3D0030AF3D0030B03D20005D0803194C
:102FC000E52F0130DB070030DC3D5A080319EC2FF8
:102FD0000130D8070030D93D21003D080319F42FF6
:102FE0000130BB070030BC3D2C080319122F013003
:102FF000A8070030A93D0030AA3D0030AB3D122F9C
:103000002D3463342E3462342F34613430346034E0
:1030100031345F3432345E3433345D3434345C34D0
:1030200035345B3436345A343834593439345834BE
:103030003A3457343B3456343D3455343E345434AA
:103040004034533441345234423451344434503493
:1030500045344F3447344E3449344D344A344C347B
:103060004C344B344E344A344F3449345134483460
:103070005334473455344634573445345934443442
:103080005B3443345D3442345F3441346134403422
:1030900063343F3465343E3467343D3469343C3402
:1030A0006C343B346E343A347034393473343834DD
:1030B00075343734783436347A3435347D343434B6
:1030C0007F3433348234323485343134873430348D
:1030D0008A342F348D342E3490342D3492342C3461
:1030E00095342B3498342A349B3429349E34283434
:1030F000A1342734A4342634A7342534AA34243404
:10310000AD342334B0342234B3342134B6342034D3
:10311000B9341F34BC341E34BF341D34C2341C34A3
:10312000C6341B34C9341A34CC341934CF3418346F
:10313000D2341734D5341634D8341534DB3414343F
:10314000DE341334E1341234E4341134E73410340F
:10315000EA340F34EC340E34EF340D34F2340C34E2
:10316000F5340B34F8340A34FA340934FD340834B5
:10317000FF3407340D3463340E3461340F345E345D
:1031800010345B34113459341234563413345434FB
:10319000143452341534503416344F3417344D34FB
:1031A00018344B3419344A341A3448341B344734F5
:1031B0001C3445341D3444341E3443341F344234EB
:1031C0002034403421343F3422343E3423343D34DF
:1031D00024343C3425343B3426343A3427343934CF
:1031E000283438342A3437342B3436342C343534BC
:1031F0002D3434342F3433343034323431343134A8
:103200003334303434342F3436342E3437342D3490
:1032100039342C343B342B343C342A343E34293476
:103220004034283442342734443426344634253458
:10323000483424344A3423344C3422344E34213438
:103240005034203453341F3455341E3458341D3414
:103250005A341C345D341B345F341A3462341934EC
:1032600065341834673417346A3416346D341534C1
:103270007034143473341334763412347A34113491
:103280007D34103480340F3483340E3487340D345D
:103290008A340C348E340B3491340A349534093426
:1032A000983408349C340734A0340634A3340534ED
:1032B000A7340434AB340334AF340234B3340134B0
:1032C000B63400340034043401340034053401349D
:1032D0000134003401340134013401340134023446
:1032E0000134013403340134013404340134013431
:1032F0000534013402340134063403340034043418
:103300000334063401340334073401340434003404
:1033100001340434013401340434063401340434F7
:1033200007340134053400340234053402340234E5
:1033300005340434013405340534023405340734CB
:1033400001340634003402340634023401340634C5
:1033500003340134063404340134063405340234B1
:10336000063407340134073400340134073401349F
:103370000134073402340134073403340134073490
:10338000043401340734053401340734063401347D
:103390000734073401340834033401340834043466
:1033A0000134083405340134083406340134083457
:1033B000073401345D34543454340734AA340334AC
:1033C0008C3408343934013490340134DC3405341D
:1033D000C43409340434103468341034B8340B3431
:1033E000303475340634023403345E340334193413
:0833F00007343C3432341C3474
:103ACE000800123097000800280017150800F000B3
:103ADE007008220099000800843022009800990195
:103AEE000800640080010131890B792D0034FE003D
:103AFE0012001E00FE0B7F2D0034E23021009E00CE
:103B0E009B019C0101309D0008000030200093189D
:103B1E000130F0007008031D93107008080070301B
:103B2E002100990098012200960121001A1B08001D
:103B3E009C2DF930280096009501200093107F30BF
:103B4E002800970008001030210023026830031966
:103B5E0022020318B42D0130080000300800003096
:103B6E009D316E259D311E309D31DB250032003298
:103B7E00003200320800F000700823009100151387
:103B8E0095131514000000002300130808002400EC
:103B9E001508F039083895009516133092000D303F
:103BAE00890BD72D00000800F1007108F000F00D10
:103BBE00F00D21001D087006833970069D001D143E
:103BCE000800F10021005308F0007135890AF02D2C
:103BDE00F036890BEF2D7008033908000F302500E1
:103BEE0093009501803094001D3096009201910152
:103BFE00FC309E050800FF30F4000330F500003065
:103C0E009F312D272000DA01D801D901D701D50126
:103C1E00D601080020009111240016152100C901BB
:103C2E002000911908009E31E9269E31003A031DAD
:103C3E000800172E20009111240016142100C9012E
:103C4E002000911908009E31E9269E31003A031D8D
:103C5E000800272E083405340334083405340334A1
:103C6E0008340534033401340134013400349834FB
:103C7E00BA3498342000911124009616161621009D
:103C8E00C9012000911908009E31E9269E31003AA3
:103C9E00031D0800482EF000F101F10A02307002F7
:103CAE00031C612E0314F10D0130F002023070027C
:103CBE0003185A2E71080800F300F201731C6B2EC4
:103CCE007008F1007108F2070310F00D0310F30CE9
:103CDE007308031D652E72080800F1002000911173
:103CEE007108240091002100C901200091190800DB
:103CFE009E31E9269E31003A031D08007C2E0330CA
:103D0E0020006805F00021005308F1000130F13564
:103D1E00FF3E031D8E2E71357004F2007208D30023
:103D2E00080020009111240096152100C901A52E2E
:103D3E009E31E9269E31003A031DA82E2000911DCA
:103D4E009F2E240011080800A4002408A1002108B9
:103D5E00F7002030A2002208F800F901F90A5030CD
:103D6E0090311C202000A30023082100D00408005D
:103D7E002000A6009D31B6259E31200026089F31D9
:103D8E005D279E317108FD007008FC009031CA203D
:103D9E007D08A5007C08A4000800F300F401740857
:103DAE009D31E8259E317306031DDF2E013008007C
:103DBE000130F2007208F40704307402031CD62E90
:103DCE00003008002400161FEE2E01300800951F4B
:103DDE00151BEC2E20009219EC2EFB30210049020F
:103DEE000318EC2E0130F0007008C90700300800EF
:103DFE007108F3007008F200F336F20CF336F20C91
:103E0E0072082500910070080339F2000430F23573
:103E1E00890B0E2F1308CF39720493000800770810
:103E2E00803AF80080307802031D1F2F0130760291
:103E3E00031808007609F8007709F900F80A031943
:103E4E00F90A7808F6007908F7000800F6007508F8
:103E5E00F1007408F0009E31FF269F31761C392F39
:103E6E0096153A2F9611F61C3E2F16143F2F16104C
:103E7E00761D432F16150800161108009F31762760
:103E8E009F319D3196259F319D3168259F319D3102
:103E9E0073259F319D3184259F319D31F5259F31AD
:103EAE009D31A0259F31883100200800F300730852
:103EBE00F200F20DF20D21001D0872068339720612
:103ECE009D001D140D30890B6A2F000021009D14DA
:103EDE009D186F2F1C08F1001B08F0000800C03061
:103EEE0022008C0008308D003F3021008C00F7300E
:103EFE008D00F63023008D001F308C0024008D01C4
:103F0E008C01210095170E3022009D009E010800A5
:103F1E00F401F501701C972F7208F4077308F53D34
:103F2E000130F235F30D890B982F0130F136F00C7C
:103F3E00890B9D2F70087104031D912F7508F100D8
:103F4E007408F00008002000A3002308A000200839
:103F5E00F7002308D43EA1002108F800F901F90A60
:103F6E0050309F31C6272000A20022082100D00425
:103F7E0020002308D43E8600870101080800FC00BB
:103F8E007708FA007A08F2007C0890313C209F31C5
:103F9E00FB007B08FD007D080319D72F7D08080064
:103FAE007808FA007A08F2007908FB007B08F30023
:103FBE007C089331CA23080025001308F200043050
:103FCE00F236890BE72F72080339F300F40111085A
:103FDE00F500F601F535F60DF535F60D7308750499
:103FEE00F70074087604F8007708F0007808F100FE
:023FFE000800B9
:020000040001F9
:08000000FF3FFF3FFF3FFF3F00
:04000E00FC3FFF3F75
:10E00000540069006E0066006500760065007200CD
:10E010002000460055002D004400790073006F0079
:10E020006E002D0042004D005300200056003100CC
:10E0300000002000000000000000000000000000C0
:00000001FF
